:020000040800F2
:10000000C06A0120916B0008691300086B13000897
:100010006F13000873130008771300080000000036
:100020000000000000000000000000007B1300083A
:100030007D13000800000000D7A603086D6A0008C1
:10004000AB6B0008AB6B0008AB6B0008FD2500082C
:10005000AB6B0008AB6B0008AB6B0008AB6B000828
:10006000AB6B0008AB6B0008AB6B0008AB6B000818
:10007000AB6B0008AB6B0008AB6B0008AB6B000808
:10008000AB6B0008AB6B0008AB6B00080000000016
:10009000000000000000000000000000AB6B000842
:1000A000AB6B0008AB6B0008AB6B0008AB6B0008D8
:1000B000C7230008D9230008AB6B0008AB6B00080E
:1000C000AB6B0008AB6B0008AB6B0008AB6B0008B8
:1000D000AB6B0008AB6B0008AB6B000800000000C6
:1000E000AB6B0008D9250008AB6B000800000000CE
:1000F000000000000000000000000000AB6B0008E2
:1001000000000000AB6B0008AB6B0008AB6B000895
:1001100000000000000000000000000000000000DF
:10012000AB6B0008AB6B0008AB6B00082D2100081F
:10013000AB6B0008000000000000000000000000A1
:10014000000000000000000000000000AB6B000891
:10015000AB6B0008AB6B0008AB6B0008812200089A
:10016000AB6B0008AB6B0008000000000000000053
:10017000000000000000000000000000000000007F
:1001800000000000AB6B0008000000000000000051
:10019000AB6B0008AB6B000800F002F800F061F8F0
:1001A0000AA090E8000C82448344AAF10107DA45D2
:1001B00001D100F056F8AFF2090EBAE80F0013F0C3
:1001C000010F18BFFB1A43F00103184758950700A9
:1001D000789507000A444FF0000C10F8013B13F02B
:1001E000070408BF10F8014B1D1108BF10F8015B90
:1001F000641E05D010F8016B641E01F8016BF9D183
:1002000013F0080F1EBF10F8014BAD1C0C1B09D1D9
:100210006D1E58BF01F801CBFAD505E014F8016B4B
:1002200001F8016B6D1EF9D59142D6D370470000DD
:100230000023002400250026103A28BF78C1FBD8EF
:10024000520728BF30C148BF0B607047642939F09E
:100250000587002070471FB53CF097FA1FBD10B509
:1002600010BD3AF0EFF91146FFF7F5FF00F075F910
:100270003AF00DFA03B4FFF7F2FF03BC01F0A0FF60
:1002800086B000BF5CE00521062006F0ABFB17211D
:1002900090FBF1F0E449087004A9002009F01CF972
:1002A0009DF811309DF81020E0A1E34839F09AFE46
:1002B0009DF81220E1A1E34839F094FE03A9002043
:1002C00009F0A4F99DF80E309DF80D20DEA1E1485B
:1002D00039F088FE9DF80C00DF4908709DF8100089
:1002E000DE4908709DF81100DD4908709DF8120084
:1002F000DC490870DC48406C0A2190FBF1F201FBFC
:100300001204D948406C90FBF1F523462A46D7A148
:10031000D84839F067FED848D8A10268D94839F0E2
:1003200061FEC1480278C5A1D74839F05BFE05A837
:1003300000210A230A46CDE90010084611F033F8DF
:10034000A1E70EB500BF13E0002001F069FA0446F2
:1003500005F012FF01F0B8FA044605F00DFF02A8FF
:10036000002114230A46CDE90010084611F01BF8BD
:10037000EAE70EB500BF0DE005F0AEFDBE4805F0A2
:1003800041F802A8002132230A46CDE900100846B0
:1003900011F009F8F0E70EB528F024FA00BF0CE0E0
:1003A00028F020FA02F07FFC02A8002132230A463E
:1003B000CDE90010084610F0F6FFF1E70EB500BFDA
:1003C00037F060FF37F0A1FF28F00CFA02A80021F7
:1003D0000B460122CDE90010084610F0E4FF37F08B
:1003E000B5FF37F0B9FF38F046FE38F0DFFC39F0E2
:1003F00075F839F015FC38F04DFF39F0A3FB0AE031
:1004000028F0F0F902A800210A230A46CDE90010DD
:10041000084610F0C8FFF3E730B58BB0044600255E
:1004200000BF0AF05FF80AA80FF07BF80AF0F8F8AE
:1004300000BF00BF0AF0EEF9054600BF09F0E7FF74
:1004400000BF0AA8032100220592CDE906210890E9
:1004500010464FF4806166228C4BCDE90132CDE924
:10046000031008200023AFF2AB0289A100908B4853
:100470000FF0D7FB0AA8032100220592CDE906213F
:10048000089010464FF400713322854BCDE90132BC
:10049000CDE9031005200023AFF2051281A10090E1
:1004A00083480FF0BEFB0AA8032100220592CDE984
:1004B0000621089010464FF4007133227D4BCDE9A0
:1004C0000132CDE9031004200023AFF259127AA1C2
:1004D00000907D480FF0A5FB0AA803210022059299
:1004E000CDE90621089010464FF400713322774B76
:1004F000CDE90132CDE9031007200023AFF2BD1290
:1005000073A1009075480FF08CFB0AA8032100220C
:100510000592CDE90621089010464FF40071332270
:100520006F4BCDE90132CDE9031006200023AFF275
:10053000AF226CA100906E480FF073FB0AA96D48C2
:1005400010F0B9FB00BF09F043FF00BF28460AF0D6
:1005500065F900BF00BF0BB030BD8AB00024A820F1
:1005600006F090FA4FF4A06006F032FB01F06AFF4B
:1005700001F08AFC532140F2671006F087F906F07B
:10058000DDF901F0A4FB4FF4E13001F027FE01F0AA
:100590002EF902F0D1FA02F02EFB02F047F805F036
:1005A00048FC05F05AFC40F6FF71062006F036FACA
:1005B000472140F2E73001F0ADFE15F05FFA37F069
:1005C000A9FC09A80BF088FD00BF00BF0AF022F9C2
:1005D000044600BF09F01BFF00BF09A80321002249
:1005E0000592CDE90621089010464FF400713322A0
:1005F000414BCDE90132CDE9031003200023AFF2D6
:10060000E7123EA100903B480FF00BFB00BF09F042
:10061000DFFE00BF20460AF001F900BF00BF09A8B5
:100620000BF048FF00BFFEE778030020253032645E
:100630003A2530326400000068030020253032641F
:10064000000000006D030020253032642D2530327B
:10065000640000006F030020640300206503002095
:1006600066030020670300201C4200202532642E10
:1006700025644300500300206003002025346420DB
:100680004D0000005803002079030020802800203E
:100690004C56474C207461736B000000BC2700204F
:1006A000F8160020424D50207461736B000000006A
:1006B00030160020300E00204D5055363035302099
:1006C0007461736B000000006C0D0020BC1F0020E3
:1006D000425554544F4E207461736B00F81E002035
:1006E0004439002044415441207461736B00000080
:1006F00080380020A80400206C050020737461720B
:1007000074207461736B00002DE9F04704460D46B8
:1007100016461F46DDF82080301B401C791B491C03
:1007200048431FFA80F93B4632462946204601F0ED
:1007300056F90020FC490860FC48008840F400603D
:10074000FA4908800121F94807F09CFA49464046D9
:1007500001F08FFCBDE8F08770B505460E461446E3
:100760003146284601F0F2F9204601F092F970BDB9
:100770002DE9F05F04460D4616461F46301B401C0F
:100780001FFA80FA781B401C1FFA80FB3B4632465A
:100790002946204601F094F94FF000080FE04FF091
:1007A000000906E00A9801F074F909F101001FFA46
:1007B00080F9D145F6DB08F101001FFA80F8D84531
:1007C000EDDBDB484088401E83B2D9480088401EDC
:1007D00082B20021084601F073F9BDE8F09F2DE9CF
:1007E000FF4F85B081468A46002004900390079809
:1007F000A0EB09050898A0EB0A06CDF80890CDF803
:1008000004A0002D01DD012705E00DB9002702E05D
:100810004FF0FF376D42002E02DD4FF0010806E079
:1008200016B94FF0000802E04FF0FF387642B542AB
:1008300001DD2C4600E034464FF0000B21E0019A28
:1008400091B2029A90B201F08BF904982844049076
:100850000398304403900498A04205DD0498001BDF
:1008600004900298384402900398A04205DD039852
:10087000001B03900198404401900BF101001FFA06
:1008800080FB601C8345DADD09B0BDE8F08F2DE9FF
:10089000F04104460D4616461F462B463246294671
:1008A0002046FFF79CFF3B46224629462046FFF79D
:1008B00096FF3B46324639462046FFF790FF3B46BF
:1008C000324629463046FFF78AFFBDE8F081F8B589
:1008D00004460D4616461F46964800883B4632465B
:1008E000294600902046FFF743FFF8BD2DE9F0416F
:1008F00004460D4616461F46DDF81880EA1991B2E7
:10090000A21990B24246FFF727FFEA1991B2A21B43
:1009100090B24246FFF720FFEA1B91B2A21990B2B3
:100920004246FFF719FFEA1B91B2A21B90B2424662
:10093000FFF712FFAA1991B2E21990B24246FFF7EF
:100940000BFFAA1991B2E21B90B24246FFF704FFD7
:10095000AA1B91B2E21990B24246FFF7FDFEAA1B14
:1009600091B2E21B90B24246FFF7F6FEBDE8F0817D
:100970002DE9FF4F81B0824617469846DDF838B022
:10098000002445464FEA4800C0F10306BBF1000FC2
:100990001FD01BE0A14608E04B4622460097504678
:1009A0000299FFF7A3FF09F10109A945F4DD002E23
:1009B00004DA042000FB0460861D06E0601B0421AD
:1009C00001FB006000F10A066D1E641CAC42E1DD13
:1009D00018E015E02B462246009750460299FFF793
:1009E00085FF002E04DA042000FB0460861D06E06B
:1009F000601B042101FB006000F10A066D1E641CEF
:100A0000AC42E7DD05B0BDE8F08F2DE9F0470446C4
:100A10000D4616461F46DDE908893B463246294603
:100A20002046FFF7DCFE4B46424639463046FFF78C
:100A3000D6FE2B46224649464046FFF7D0FEBDE88B
:100A4000F08702880B8803800A8070472DE9FF4FEA
:100A500085B000260027BDF81800BDF82010884298
:100A600007DD08A906A8FFF7ECFF07A905A8FFF70F
:100A7000E8FFBDF82000BDF84C10884207DD08A94A
:100A800013A8FFF7DEFF07A912A8FFF7DAFFBDF8EA
:100A90001800BDF82010884207DD08A906A8FFF756
:100AA000D0FF07A905A8FFF7CCFFBDF81800BDF8D7
:100AB0004C10884240D1BDF8140003900490BDF85A
:100AC0001C00BDF81010884203DABDF81C00049029
:100AD00008E0BDF81C00BDF80C10884202DDBDF82E
:100AE0001C000390BDF84800BDF81010884203DADE
:100AF000BDF84800049008E0BDF84800BDF80C10AF
:100B0000884202DDBDF8480003900A480088009042
:100B1000BDF81830BDF80C201946BDF81000FFF7DD
:100B200027FE09B0BDE8F08F90024042003001403E
:100B3000444100201A000020BDF81C00BDF814102C
:100B4000A0EB010BBDF82000BDF81810401A029070
:100B5000BDF84800BDF81410451ABDF84C00BDF8AA
:100B60001810A0EB0109BDF84800BDF81C10A0EB5F
:100B7000010ABDF84C00BDF82010401A0190BDF8E4
:100B80002000BDF84C10884202D1BDF8208004E05E
:100B9000BDF82000401E1FFA80F8BDF8184027E07D
:100BA000029896FBF0F0BDF81410084480B204904F
:100BB00097FBF9F0BDF81410084480B203905E442E
:100BC0002F44BDF81000BDF80C10884203DD03A9C6
:100BD00004A8FFF736FFFE48008823460090BDF8C2
:100BE0000C202146BDF81000FFF7C2FD601C84B246
:100BF0004445D5DDBDF82000201A00FB0AF6BDF8FB
:100C00001800201A00FB05F727E0019896FBF0F08A
:100C1000BDF81C10084480B2049097FBF9F0BDF8B1
:100C20001410084480B2039056442F44BDF81000BD
:100C3000BDF80C10884203DD03A904A8FFF701FFEB
:100C4000E348008823460090BDF80C202146BDF8FB
:100C50001000FFF78DFD601C84B2BDF84C0084428B
:100C6000D3DD00BF5DE72DE9FF4F83B081468A46A3
:100C70009346DDE91064D64800880290A6F1200072
:100C8000C6B204EBD47009EB6000401E82B20AEBDE
:100C90000400401E83B251464846019400F010FF04
:100CA000129850BB002525E00C2C07D106EB46001E
:100CB000C84901EB800010F8058004E0C64800EB4D
:100CC000061010F8058000270DE008F0010018B1AB
:100CD000584600F0DEFE02E0069800F0DAFE4FEA29
:100CE0006808781CC7B204EBD471B7EB610FECDB7A
:100CF000681CC5B2A542D7DB2DE0002529E00C2CED
:100D000007D106EB4600B34901EB800010F80580DF
:100D100004E0B14800EB061010F80580002711E050
:100D2000AB48A0F800B008F0010038B10AEB0502AA
:100D300091B209EB070290B200F012FF4FEA680887
:100D4000781CC7B204EBD471B7EB610FE8DB681C09
:100D5000C5B2A542D3DB9E49029808809F484088CF
:100D6000401E83B29D480088401E82B20021084682
:100D700000F0A6FE07B0BDE8F08F2DE9FE43064661
:100D80000F4615461C46DDF828801DE09348008874
:100D9000401EB04204DB91484088401EB84201DA50
:100DA000BDE8FE8320788DE821018D4803888848BE
:100DB000028839463046FFF756FF284605EBD071CA
:100DC00006EB61018EB2641C20787E2802DC20785C
:100DD0002028DBDA00BFE3E710B50246012000E07F
:100DE00050430B1EA1F10104E1B2F9D110BD2DE970
:100DF000FF4F83B0074691461E46109C4FF0000AF5
:100E0000002543E0701B401EC1B20A20FFF7E4FF3B
:100E1000B9FBF0F00A21B0FBF1F201FB1208BAF1C4
:100E2000000F1BD1701EA84218DDB8F1000F13D1BE
:100E300000202021A346CDE90014029004EBDB71D1
:100E4000491001FB057188B265490B8860490A8821
:100E50000499FFF708FF17E04FF0010A002108F19D
:100E60003000C0B2A346CDE90141009004EBDB7134
:100E7000491001FB057188B259490B8854490A8809
:100E80000499FFF7F0FE00BF681CC5B2B542B9DB9C
:100E900007B0BDE8F08F2DE9FC5F05468846914616
:100EA0009A46DDF830B000953E20019000245FE0C6
:100EB00004EB04104B4911F810009BF80010884215
:100EC00053D104EB0410474901EB400040789BF8F4
:100ED0000110884249D108F10F0083B205F10F00DB
:100EE00082B24146284600F0EBFD00263BE0002799
:100EF00034E00D9890B904EB04103A4901EB40003E
:100F0000801C805D80213941084018B1484600F0BE
:100F1000C0FD21E0504600F0BCFD1DE02C48A0F8CB
:100F2000009004EB04102F4901EB4000801C805D11
:100F300080213941084018B14146284600F010FE92
:100F4000681C85B20098281A102805D1009D08F168
:100F500001001FFA80F803E0781CC7B2082FC8DB35
:100F600000BF701CC6B2202EC1DB00BF601C84B263
:100F7000019884429CDB19484088401E83B2174880
:100F80000088401E82B20021084600F099FDBDE8AD
:100F9000FC9F2DE9FC5F0546884691469A46DDF8A0
:100FA00030B0009507200190002477E004EB840026
:100FB00000EB44100C4911F810009BF80010884217
:100FC00069D104EB840000EB441007490EE00000F7
:100FD0001A0000208EC8030802CD030844410020F7
:100FE0001C000020F2D203082EDB030801EB4000B6
:100FF00040789BF8011088424DD108F1170083B268
:1010000005F1170082B24146284600F059FD00263E
:101010003FE0002738E00D98A0B904EB840000EB16
:101020004410CD4901EB4000801C805D8021394196
:10103000084018B1484600F02CFD23E0504600F06F
:1010400028FD1FE0C548A0F8009004EB840000EBE9
:101050004410C14901EB4000801C805D8021394172
:10106000084018B14146284600F07AFD681C85B258
:101070000098281A182805D1009D08F101001FFAD0
:1010800080F803E0781CC7B2082FC4DB00BF701CD7
:10109000C6B2482EBDDB00BF601C84B201988442FA
:1010A00084DBAF484088401E83B2AD480088401EB4
:1010B00082B20021084600F003FDBDE8FC9F2DE947
:1010C000FC5F0546884691469A46DDF830B00095AB
:1010D0000420019000245FE004EB8410A14911F882
:1010E00010009BF80010884253D104EB84109D49F6
:1010F00001EB400040789BF80110884249D108F18B
:101100001F0083B205F11F0082B24146284600F05D
:10111000D7FC00263BE0002734E00D9890B904EBA3
:101120008410904901EB4000801C805D8021394192
:10113000084018B1484600F0ACFC21E0504600F0F1
:10114000A8FC1DE08548A0F8009004EB84108549B8
:1011500001EB4000801C805D80213941084018B1BE
:101160004146284600F0FCFC681C85B20098281A0D
:10117000202805D1009D08F101001FFA80F803E046
:10118000781CC7B2082FC8DB00BF701CC6B2802E07
:10119000C1DB00BF601C84B2019884429CDB7048B4
:1011A0004088401E83B26E480088401E82B20021F3
:1011B000084600F085FCBDE8FC9F2DE9FF4F83B099
:1011C000064688469146DDE91147109DB2464FF02C
:1011D000000B71E0BBF1000F40D104EBD471604A09
:1011E0001288A2EB6101B14204DB5D494988091B09
:1011F000414502DA07B0BDE8F08F2878802802DD8B
:101200004FF0010B58E028780D2806D108EB0400B8
:101210001FFA80F856466D1C1EE0102C0DDD1021C3
:1012200028788DE883004A4641463046069BFFF702
:101230001AFD06F1080086B20EE028788DE89100CC
:101240004A4641463046069BFFF70DFD204604EB1B
:10125000D07106EB61018EB26D1C2DE04048008814
:10126000001BB04204DB3E484088001B404500DACA
:10127000C0E74FF0000B202C08D1CDE900574A46BB
:1012800041463046069BFFF71AFF12E0182C08D1A2
:10129000CDE900574A4641463046069BFFF779FEA6
:1012A00007E0CDE900574A4641463046069BFFF726
:1012B000F2FDAD1C301986B2287800288AD100BF13
:1012C00098E72DE9FE4F0E4617469846DDE90D9A40
:1012D0000C9C204638F0EAFF85B221490988A1EB31
:1012E000C50000EBD071C1F34F0B43463A4631467F
:1012F00058468DE81006FFF760FFBDE8FE8F2DE928
:10130000F04706460F46154607F1270083B206F15F
:10131000270082B23946304600F0D2FB00240AE0B2
:1013200015F8149005EB440090F8018049EA082074
:1013300000F0AFFB641CB4F5C86FF1DB08484088CF
:10134000401E83B206480088401E82B20021084633
:1013500000F0B6FBBDE8F0872EDB03081A00002082
:101360004441002034DD0308704700BFFEE700BFA2
:10137000FEE700BFFEE700BFFEE7704770470000D2
:101380006048006840F080505E4908605E48006830
:1013900040F440405C4908605A4838380068594970
:1013A000383908600846006808600846006840F45C
:1013B000805008605548091F0860081F006840F009
:1013C0008070091F086000BF4E484038006800F078
:1013D00000700028F8D040F202704D49086049487A
:1013E0003838006820F0030046493839086008465C
:1013F000006840F00200086000BF424838380068CA
:1014000000F00C000828F8D1704710B5414800687A
:1014100040F470003F4908603A484038006840F0A6
:1014200001003849403908600020364938390860E1
:10143000344840380068384908403249403908602B
:101440003648091D0860081F006820F48020091F25
:10145000086000202B4934390860FFF791FF4FF0F6
:1014600000602C498039086010BD70B50020002153
:10147000022200230224234D383D2D6805F00C0084
:1014800020B1042806D0082829D107E0244D254E94
:10149000356028E0244D234E356024E0194D3C3D55
:1014A0002D68C5F38053174D3C3D2D6805F03F0472
:1014B0004BB91B4DB5FBF4F5124E3C3E3668C6F3F6
:1014C000881605FB06F10F4D3C3D2D68C5F301451F
:1014D0006D1C6A00B1FBF2F5124E356003E0104D51
:1014E000104E356000BF00BF064D383D2D68C5F376
:1014F00003150E4E705D0B4D2D68C540094E3560CD
:1015000070BD0000403802400070004010640107C8
:10151000003C024088ED00E0FFFFF6FE10300024A2
:101520000024F4000000002040787D010400002029
:101530001CB50121022005F0E1FE4FF4407000903F
:1015400001208DF8040000208DF8060002208DF89F
:10155000050001208DF8070069468C4805F02EFC37
:101560001CBD10B58948006820F4402087490860F8
:101570000846006840F48020086001208449086023
:101580008449C1F8A002042005F0ABFA002080498C
:101590000860042005F0A5FA00207E49C1F8A002E9
:1015A00010BD10B57948006820F4402077490860E4
:1015B0000846006840F48020086000207449091F34
:1015C00008607449C1F8A402042005F08AFA0120D9
:1015D0006F49091F08606F49C1F8A402042005F093
:1015E00080FA10BD10B500246848006820F440203F
:1015F0006649086008460068086001206449086080
:1016000005F06FFA01206349C1F8A00205F069FAFC
:1016100007E0601CC4B2FA2C03DDFFF7C2FF012013
:1016200010BD5B48803800680028F2D15849091F76
:10163000086000BFF4E710B500205549091F086095
:101640005248006820F4402050490860084600686D
:1016500040F48020086000204E49C1F8A402022016
:1016600005F03FFA01204A49091F0860022005F0F1
:1016700038FA00204749C1F8A00210BD10B500207B
:101680004349091F08604148006820F440203F4951
:1016900008600846006840F48020086001203D4949
:1016A000C1F8A402022005F01CFA01203849091FE4
:1016B0000860022005F015FA00203649C1F8A002A2
:1016C00010BD70B504463148006820F440202F4911
:1016D00008600846006840F48020086000202C491B
:1016E000091F086000251DE0E00918B10120284904
:1016F000086002E00020264908606006040E02200F
:1017000005F0EFF901202249091F0860022005F0C9
:10171000E8F900201F49C1F8A002022005F0E1F914
:10172000681CC5B2082DDFDB70BD70B5054600240E
:101730001648006820F440201449086008460068F4
:101740000860002617E000201149091F08600220E8
:1017500005F0C7F901200F49C1F8A0026006040E88
:101760000B488038006808B1601CC4B2012005F045
:10177000B8F9701CC6B2082EE5DB15B9FFF77EFF7D
:1017800001E0FFF758FF204670BD00000004024052
:10179000A4824042008040421CB50121084605F069
:1017A000ADFD4FF40040009000208DF804000320B0
:1017B0008DF8050002208DF807006946684805F09D
:1017C000FDFA1CBD1CB50121084605F097FD04205B
:1017D000009000208DF8040003208DF80500022001
:1017E0008DF8070069465E4805F0E8FA1CBD1CB597
:1017F0000121022005F082FD0720009000208DF8D5
:10180000040003208DF8050001208DF807006946CB
:10181000544805F0D3FAFFF7D5FFFFF7BDFF1CBD15
:1018200010B5044614B101204F4908704E480078A5
:10183000E8B101214B4805F023FB20B102214948C2
:1018400005F01EFB98B90A2005F075F900204649FD
:1018500008700121434805F013FB08B9012010BDB1
:101860000221404805F00CFB78B90220F7E701217E
:101870003C4805F005FB012807D10221394805F055
:10188000FFFA012801D1384908700020E7E770B558
:101890000421344805F0F4FA05460421304805F0E7
:1018A000EFFA08B9012000E0002045EA400040F0CE
:1018B000FC0080F0FF042D480078604020402C4957
:1018C00008702A48047070BD10B5FFF7E0FF274884
:1018D0000078012802D002281DD10EE025480078AA
:1018E000401C2449087001202349087021480078D1
:1018F000282801DD042010BD0EE01E480078401CA1
:101900001C49087002201C4908701A4800782828D1
:1019100000DD01E000BF00BF00BF15480078E0B95E
:1019200012480078C8B913480078002812DD114821
:10193000007814280EDA10480078012802D0022816
:1019400006D101E00320D6E700200C49086000E042
:1019500000BF00BF0020074908700020CBE700004F
:101960000000024000040240180000201500002082
:101970001400002016000020170000208C024042B6
:1019800010B504460020FE490860FE49C1F89002E7
:101990002146FD4800F0B0FA0120F94910390860ED
:1019A000F849C1F8A00210BD10B504460020F44962
:1019B000103908602112F44800F09EFA0120F14924
:1019C000C1F890020020EE4910390860E1B2EE48FB
:1019D00000F092FA0120EB49C1F8900210BD2DE908
:1019E000F04104460D4616461F462A20FFF7C8FF61
:1019F00004F1340188B2FFF7D7FF06F1340188B251
:101A0000FFF7D2FF2B20FFF7BBFF05F1280188B2BB
:101A1000FFF7CAFF07F1280188B2FFF7C5FF2C20A6
:101A2000FFF7AEFFBDE8F08110B504460020D449B1
:101A300010390860D349C1F8A0022146D24800F00D
:101A40005BFA0120CE491039086010BD10B504467C
:101A50000020CB49103908600120CA49C1F8A00212
:101A60002146C94800F048FA0120C54910390860EC
:101A700010BD70B505460C462846FFF7D5FFE0B20D
:101A8000FFF7E4FF70BD10B5C049087AFFF7CCFF3F
:101A900010BD10B504460020B94910390860012076
:101AA000B849C1F8A0022112B74800F025FAE1B206
:101AB000B54800F021FA0120B1491039086010BD85
:101AC0002DE9F04104460D4616461F46AF49887A77
:101AD000FFF7AAFFAD49897B2144C1F30720FFF737
:101AE000B5FFAA49897B2144C8B2FFF7AFFFA749D8
:101AF000897B3144C1F30720FFF7A8FFA349897B05
:101B00003144C8B2FFF7A2FFA049087BFFF78CFF62
:101B10009E49C97B2944C1F30720FFF797FF9B49E2
:101B2000C97B2944C8B2FFF791FF9849C97B394462
:101B3000C1F30720FFF78AFF9449C97B3944C8B233
:101B4000FFF784FFFFF79FFFBDE8F08170B5044603
:101B50000D462B46224629462046FFF7B1FF70BDB1
:101B600070B504460D4629462046FFF7EFFF88482A
:101B70000088FFF78EFF70BD70B50446834840882B
:101B8000401E83B281480088401E82B20021084670
:101B9000FFF796FF00207A49103908600120794943
:101BA000C1F8A00200250FE0002608E021127648C7
:101BB00000F0A2F9E1B2744800F09EF9761C734877
:101BC0000088B042F2D86D1C70484088A842EBD81B
:101BD00001206B491039086070BD1CB50121084611
:101BE00005F08CFB4FF48970009001208DF8040003
:101BF00003208DF8050000208DF8060001208DF8E7
:101C000007006946634805F0D9F84FF489716148C7
:101C100005F050F91CBD10B5002059491C39086069
:101C2000142004F088FF01205649C1F884021420D2
:101C300004F081FF10BD10B504462A2053494881A5
:101C40002B2088812C20088134B1012C12D0022C49
:101C50001ED0032C38D129E087204C490880F02081
:101C60004880342088732820C87300213620FFF76D
:101C700000FF2AE0F020454908808720488028207E
:101C800088733520C87360213620FFF7F2FE1CE010
:101C900087203E490880F02048803520887328201E
:101CA000C873C0213620FFF7E4FE0EE0F02037496C
:101CB000088087204880282088733420C873A0219A
:101CC0003620FFF7D6FE00E000BF00BF10BD10B504
:101CD00000F036F9FFF781FFFFF79DFF782004F051
:101CE0002AFF1120FFF7A0FE782004F024FF362001
:101CF000FFF79AFE0020FFF7A9FE3A20FFF794FEB7
:101D00000520FFF7A3FE2120FFF78EFEB220FFF78C
:101D10008BFE0520FFF79AFE0520FFF797FE0020B7
:101D2000FFF794FE3320FFF791FE3320FFF78EFE7E
:101D3000B720FFF779FE2320FFF788FEBB20FFF7CF
:101D400073FE2220FFF782FEC020FFF76DFE2C20DD
:101D5000FFF77CFEC220FFF767FE0120FFF776FE4B
:101D6000C320FFF761FE1320FFF770FEC420FFF7CA
:101D70005BFE2020FFF76AFEC620FFF755FE0BE052
:101D8000A002404200004042003001404441002097
:101D90001A000020000002400F20FFF757FED0205D
:101DA000FFF742FEA420FFF751FEA120FFF74EFEF1
:101DB000D620FFF739FEA120FFF748FEE020FFF70D
:101DC00033FE7020FFF742FE0620FFF73FFE0C2097
:101DD000FFF73CFE0820FFF739FE0920FFF736FE2B
:101DE0002720FFF733FE2E20FFF730FE3420FFF7C9
:101DF0002DFE4620FFF72AFE3720FFF727FE13208F
:101E0000FFF724FE1320FFF721FE2520FFF71EFE1B
:101E10002A20FFF71BFEE120FFF706FE7020FFF7E8
:101E200015FE0420FFF712FE0820FFF70FFE092021
:101E3000FFF70CFE0720FFF709FE0320FFF706FE61
:101E40002C20FFF703FE4220FFF700FE4220FFF7A1
:101E5000FDFD3820FFF7FAFD1420FFF7F7FD1420F1
:101E6000FFF7F4FD2720FFF7F1FD2C20FFF7EEFD33
:101E70002920FFF7D9FD0020FFF7DDFE4FF6FF70A8
:101E8000FFF77AFE10BD00001CB50121052005F00A
:101E900035FA0820009001208DF8040000208DF80C
:101EA000060003208DF8050001208DF80700694623
:101EB0000F4804F083FF08210D4804F0FBFF4FF4A6
:101EC0000050009001208DF8040000208DF80600DD
:101ED00003208DF8050002208DF8070069460548AB
:101EE00004F06CFF4FF40051024804F0E5FF1CBD04
:101EF0000000024000080240024600BF108900F0C6
:101F000002000028FAD0918100BF108900F0010082
:101F10000028FAD09089C0B2704702884FF6C77384
:101F20001A400280012902D10288028003E002885F
:101F300042F020020280028842F040020280704794
:101F400000B587B00121084605F0D8F90121080342
:101F500005F02EFAA020059002208DF81800002030
:101F60008DF81A0003208DF8190001208DF81B0050
:101F700005A91E4804F022FF052211461B4804F063
:101F8000A8FF05220721194804F0A3FF0121080337
:101F900005F063FA00214FF4805005F05EFA00204E
:101FA000ADF800004FF48270ADF802000020ADF8EB
:101FB00004000220ADF806000020ADF808004FF440
:101FC0000070ADF80A000020ADF80C00ADF80E006E
:101FD0000720ADF810006946054805F059FD0121BC
:101FE000034805F04FFE07B000BD000000000240AE
:101FF000003001402DE9F04190B004460D461746EF
:102000001E46DDF858806A48844204D901218805BB
:1020100005F074F903E00121480505F06FF9204649
:1020200005F02AFF00BF204606F04FF80028FAD13D
:1020300001950297039640200490CDF8148000206B
:1020400006904FF4806007900020089009900A9055
:102050004FF480300B9000200C9003200D90002056
:102060000E900F9001A9204605F0A8FF10B0BDE822
:10207000F08130B591B004460D460121880505F088
:102080003DF94B48583005F0F7FE00BF484858303E
:1020900006F01BF80028F9D14FF0C06002904548C7
:1020A00003900494402005900695002007904FF47B
:1020B000806008904000099080000A9000200B90FA
:1020C0004FF480300C9000200D9003200E900020E3
:1020D0000F90109002A93648583005F06FFF3B2052
:1020E0008DF8040000208DF8050003208DF806000F
:1020F00001208DF8070001A804F06FFD01221021D6
:102100002B48583006F021F80122022129480C38CA
:1021100005F057FE29462648583005F0AAFF012150
:102120002348583005F084FF11B030BD10B54FF092
:10213000C0511F48583005F0D8FF08B34FF0C051C8
:102140001B48583005F0EDFF01201B490860194875
:102150000C380088C04317490C39088008460088AD
:1021600040F40060088008460088C04308800121D0
:1021700010480C3805F086FD1048006823F0F1FB8C
:1021800010BD70B504460D460021204605F050FFF5
:1021900000BF204605F099FF0028FAD129462046C5
:1021A00005F067FF0121204605F042FF70BD0000E9
:1021B000006402400C30014090024042E8020020DE
:1021C00000BF704700BF4F4A128802F04002002A49
:1021D000F9D0C2B24B4B1B1D1A80704710B588B0A6
:1021E00004460121084605F089F80121202005F068
:1021F000DFF808220B21444804F06BFE08220C2172
:10220000414804F066FE4FF4C050069002208DF85D
:102210001C008DF81D0000208DF81E0001208DF897
:102220001F0006A9384804F0C9FD02940020ADF84B
:102230000C00ADF80E00ADF81000ADF814000C2045
:10224000ADF8120002A92F4805F013FA01212D481C
:1022500005F097FA012240F225512A4805F047FB84
:1022600047208DF8040003208DF805008DF8060046
:1022700001208DF8070001A804F0AFFC08B010BDE4
:1022800010B509F0AAFF40F225511E4805F06AFB7F
:1022900010B31C4805F0A4FAC4B21C48008800F42E
:1022A0000040C8B91948008800F4804060B10A2C89
:1022B00003D000201549088020E01448008840F42D
:1022C00000401249088019E00D2C06D10F48008803
:1022D00040F480400D49088010E00C480088C0F3AD
:1022E0000D000B490C5409480088401C0749088020
:1022F00008460088C72801DD0020088009F07EFF1D
:1023000010BD000000140140000002402400002025
:10231000544100207FB505460C460121022005F0FE
:1023200036F80295ADF804400020ADF80600ADF88F
:102330000C0001A9304806F020F8012211462E4871
:1023400006F0BCFC01212C4806F0A0F81D208DF8F9
:10235000000001208DF8010003208DF8020001200B
:102360008DF80300684604F038FC7FBD7FB5054654
:102370000C460121084605F00AF80295ADF8044024
:102380000020ADF80600ADF80C0001A94FF0804028
:1023900005F0F3FF01221146900706F08FFC0121A2
:1023A000880706F073F81C208DF8000002208DF8D5
:1023B000010003208DF8020001208DF8030068461B
:1023C00004F00BFC7FBD4FF08040008A4FF6FE709A
:1023D0004FF080410882704710B5074810300088E0
:1023E00000F0010010B1012023F09EFB4FF6FE70BB
:1023F00001491031088010BD00040040F8B50446C2
:102400000D4617461E468DF800408DF801508DF898
:1024100002708DF803606946002006F0F3FFF8BDF6
:10242000F8B504460D4617461E468DF802708DF825
:1024300001508DF800608DF803406946002007F0D8
:102440007FF8F8BD3EB541F6FF740121080704F09E
:102450009EFF012006F041FD002007F02FFC45F211
:102460005201884231D0012004F0E3FD04E0601CF9
:1024700084B20A2004F05FFB412004F093FD0028A1
:10248000F5D00CB901203EBD4FF4807004F0D4FEAD
:10249000012004F0ECFE7F200190FF20029000203C
:1024A0000090684606F013FF002338220B2112200B
:1024B000FFF7A4FF0423062205211520FFF7B0FF34
:1024C00045F25201002007F0ECFB0020DBE7F0B5FD
:1024D00087B004460D4616461F4600214FF4807013
:1024E00007F06EF98DF800508DF801608DF80270DC
:1024F00000208DF803008DF810404FF080400390CD
:10250000002002900098019001AA4FF480710020F1
:1025100007F09FF84FF4805007F0B2FC4FF4003002
:1025200006F005FE0121080307F03EFC0121080228
:1025300007F046F94FF40030059000208DF81800A0
:1025400008208DF8190001208DF81A0005A806F062
:102550007DFD2920314908700220487088700120D3
:10256000C870084604F039FB07B0F0BD7CB50546DD
:102570000C46002007F0A9F9284607F081F920460B
:1025800007F093F94FF4804007F07AFC4FF4800095
:1025900006F0CDFD0121880307F006FC012007F0BD
:1025A00094F94FF48000009000208DF8040008207A
:1025B0008DF8050001208DF80600684606F046FDFE
:1025C0000320164908700220487088700120C870E6
:1025D000084604F002FB7CBD10B54FF4807007F094
:1025E00012FC012805D1000207F01EFC0CA037F0F8
:1025F000EDFC4FF4003006F09AFD10BD10B54FF41D
:10260000806007F000FC012802D1800207F00CFC7A
:102610004FF4800006F08BFD10BD00002600002066
:10262000414C41524D2041210D0A00001CB50121B1
:10263000022004F063FEC020009001208DF8040009
:1026400000208DF8060002208DF8050001208DF88D
:1026500007006946F94804F0B1FB1CBD10B5F74806
:10266000006820F44040F54908600846006840F4DE
:10267000804008600120F2490860F248D0F81C024E
:1026800008B9002010BD0120ED49091F086004F0C1
:1026900028FA0020EB49C1F89C02E948803800681C
:1026A00008B10020EEE7012004F01BFA0020E44905
:1026B000091F08600120E5E710B5E048006820F434
:1026C0004040DE4908600846006840F480400860E9
:1026D0000020DB49091F0860DA49C1F89C0201208B
:1026E00004F0FFF90120D649091F0860D549C1F857
:1026F0009C0204F0F6F910BD10B50024CF48006824
:1027000020F44040CD490860084600680860012078
:10271000CB49086004F0E5F90120CA49C1F89802E4
:1027200004F0DFF90AE0601CC4B2322C03DDFFF7CD
:10273000C3FF002010BD012004F0D3F9C048803849
:1027400000680028EFD1BE49091F08600120F1E7A9
:1027500010B50020BA49091F0860B848006820F485
:102760004040B64908600846006840F48040086070
:102770000020B449C1F89C02012004F0B2F9012004
:10278000AF49091F086004F0ACF90020AD49C1F859
:10279000980210BD10B50020A949091F0860A7487C
:1027A000006820F44040A54908600846006840F4ED
:1027B000804008600120A349C1F89C0204F091F90F
:1027C00001209F49091F086004F08BF900209D49F2
:1027D000C1F8980210BD70B504469848006820F40E
:1027E0004040964908600846006840F48040086010
:1027F00000209349091F0860002516E0E009904970
:1028000008606006040E012004F06BF901208D4978
:10281000C1F8980204F065F900208949091F086091
:10282000012004F05EF9681CC5B2082DE6DB70BD1E
:102830002DE9F04105460E4617469846FFF70EFF74
:1028400010B90120BDE8F0816906080EFFF7C3FF4B
:10285000FFF752FF18B9FFF72FFF0120F2E73046CC
:10286000FFF7B9FFFFF748FF00240BE018F804005A
:10287000FFF7B1FFFFF740FF18B9FFF71DFF00207A
:10288000E0E7641CBC42F1DBFFF716FF0020D9E74C
:1028900070B5054600246948006820F44040674947
:1028A0000860084600680860002617E000206449B8
:1028B000091F0860022004F014F901206149C1F8E1
:1028C00098026006040E5E488038006808B1601CFB
:1028D000C4B2022004F005F9701CC6B2082EE5DB74
:1028E00015B1FFF735FF01E0FFF754FF204670BD3B
:1028F0002DE9F04106460F4614461D46FFF7AEFE91
:1029000010B90120BDE8F0817106080EFFF763FFE2
:10291000FFF7F2FE18B9FFF7CFFE0120F2E73846C5
:10292000FFF759FFFFF7E8FEFFF798FE012101EBE3
:102930004601C8B2FFF74FFFFFF7DEFE0DE0012CA6
:1029400004D10020FFF7A4FF287003E00120FFF767
:102950009FFF28706D1C601EC4B2002CEFD1FFF7E2
:10296000ABFE0020CEE770B505460E460024FFF70B
:1029700075FE2846FFF72FFF641CFFF7BDFE3046AB
:10298000FFF729FF641CFFF7B7FEFFF767FE691C1E
:10299000C8B2FFF720FF641CFFF7AEFE0020FFF770
:1029A00077FF0446FFF788FE204670BD2DE9F04111
:1029B0000746884615461E460024FFF74FFE384658
:1029C000FFF709FFFFF798FE4046FFF704FFFFF708
:1029D00093FEFFF743FE791CC8B2FFF7FCFEFFF73A
:1029E0008BFE00BF0DE0681EA04204D00120FFF75F
:1029F0004FFF305503E00020FFF74AFF3055601CC1
:102A0000C4B2AC42EFDBFFF757FE2046BDE8F081D1
:102A10002DE9F04180460D4616461F460024FFF77B
:102A20001DFE4046FFF7D7FEFFF766FE2846FFF77C
:102A3000D2FEFFF761FE00BF0DE00000000402407F
:102A40009C82404200804042385DFFF7C4FEFFF7A1
:102A500053FE601CC4B2B442F6DBFFF72DFE01202A
:102A6000BDE8F08170B505460E461446314628464D
:102A7000FFF779FF2070012070BD37B504460D4681
:102A800002AB012229462046FFF7C2FF3EBD2DE9D9
:102A9000F8430746884614461D46089E6A46414646
:102AA0003846FFF7DFFF28B3601CFF2101FA00F072
:102AB000C4F108012944491EFF220A41104300F0D5
:102AC000FF09C5F1080006FA00F0C6B2C4F107001C
:102AD00006419DF8000000EA090000909DF8000002
:102AE000304300909DF8002041463846FFF7C5FF6F
:102AF000BDE8F8830020FBE7F8B506460F4614460C
:102B00001D466A4639463046FFF7ACFF2DB101201D
:102B1000A0409DF80010084305E00120A0409DF86A
:102B2000001021EA0000C0B200909DF80020394654
:102B30003046FFF7A2FFF8BD10B5FEF7F9FC10BD57
:102B400070B505460C46FEF70CFDEE20FEF7B9FD0C
:102B5000FEF748FD2846FEF7B4FDFEF743FD20468C
:102B6000FEF7AFFDFEF73EFDFEF71BFD70BD70B535
:102B700004460025FEF7F5FCEE20FEF7A2FDFEF769
:102B800031FD2046FEF79DFDFEF72CFDFEF7E9FC2A
:102B9000EF20FEF796FDFEF725FD0120FEF7C5FDAF
:102BA0000546FEF7FEFC284670BD2DE9F0410546BE
:102BB000FEF7D7FCEE20FEF784FDFEF713FD284656
:102BC000FEF77FFDFEF70EFDFEF7CBFCEF20FEF7D4
:102BD00078FDFEF707FD0120FEF7A7FD0446002063
:102BE000FEF7A3FD0746FEF7DCFC07EB042006B268
:102BF0003046BDE8F08110B5AA20FFF7D6FF9F4907
:102C00000880AC20FFF7D1FF9C494880AE20FFF739
:102C1000CCFF9A498880B020FFF7C7FF9749C8804A
:102C2000B220FFF7C2FF95490881B420FFF7BDFF2E
:102C300092494881B620FFF7B8FF90498881B820B3
:102C4000FFF7B3FF8D49C881BA20FFF7AEFF8B496C
:102C50000882BC20FFF7A9FF88494882BE20FFF701
:102C6000A4FF8649888210BD10B500242E21F420CF
:102C7000FFF766FF052003F05EFFF620FFF795FFE4
:102C80000446204610BD10B500243421F420FFF77F
:102C900057FF052003F04FFFF620FFF786FF04469D
:102CA000A4B2204610BD10B52DED0A8BFFF7DCFF56
:102CB00072498861FFF7D8FF70498861FFF7E3FF29
:102CC0006E49C861084680694989401A6B4909897B
:102CD0004843C013694908620846006AB1F91410F4
:102CE00008446649B1F91210C90291FBF0F063493A
:102CF00048620846006A496A0844604948630846D1
:102D0000406B0830001148640846406BA0F57A60BB
:102D100088630846806B40430013B1F90E104843A6
:102D2000C012564908620846B0F90200896B484350
:102D3000C012524948620846006A496A08444F492D
:102D400088628A6AB1F9001002EB8101881CC11700
:102D500000EB91718910494AD1621046B0F9040024
:102D60001146896B48434013114608620846806B40
:102D700040430013B1F90C10484300141146486257
:102D80000846006A496A0844801C8010114688621F
:102D90000846C088896A01F500414843C00B1146C6
:102DA00008630846C069C96A401A4CF2503148436A
:102DB0001146C8630846C06BB0F1004F08D2084600
:102DC000C06B4000096BB0FBF1F01146086408E0ED
:102DD0002A48C06B2949096BB0FBF1F04000274934
:102DE00008642648006C00124043244908620846E3
:102DF000006A40F6DE314843001420490862084664
:102E0000006C1F49484300141C4948620846006A88
:102E1000496A084400F6CF601849096C01EB20109C
:102E200016490864086C39F0E2F89FED160B53EC74
:102E3000102B38F055FF41EC1B0B9FED141BB0EE2F
:102E40004B0AF0EE6B0A37F0FFFEB0EE40AAF0EE50
:102E500060AA9FED100B53EC102B51EC1A0B39F0BC
:102E600061FA9FED0E0B53EC102B39F027F938F077
:102E700049FE02498864BDEC0A8B10BD1C4200204B
:102E800043E3FFFF00000000D0BCF8406C45D9CC04
:102E9000955BC83F000000000000F03F000000000C
:102EA00040A5E54038B50446FB4890F82400C0B181
:102EB00014B10220009001E000200090F64A126850
:102EC000D17BF54A526810786B460122FFF7B0FCBF
:102ED00010B14FF0FF3038BD9DF80010EE4841743E
:102EE00023E0ED48807A10B94FF0FF30F3E724B1CA
:102EF000E948407C08B10020EDE714B101200090C2
:102F000001E000200090E44A1268D17BE24A526856
:102F100010786B460122FFF78BFC10B14FF0FF30A9
:102F2000D9E79DF80010DC4841740020D3E738B59C
:102F3000002419E0D8480068C07AA04204D0D648DE
:102F40000068407DA04200D10CE0D3494968087870
:102F50006B4601222146FFF7CBFC10B14FF0FF304A
:102F600038BD00BF601CC4B2CB4840680079A042A5
:102F7000E0DC0020F4E770B504460D46C648006862
:102F8000C07AA04204D0C4480068407DA04202D16B
:102F90004FF0FF3070BDC04840680079A04202DCAD
:102FA0004FF0FF30F6E7BC49496808782B4601220C
:102FB0002146FFF79DFCEDE738B50446B64890F88A
:102FC0002300A04201D1002038BD14B13020009070
:102FD00001E000200090B048807C20B19DF8000006
:102FE00040F002000090AC4890F8220020B19DF81B
:102FF000000040F080000090A74A1268117DA64AA8
:10300000526810786B460122FFF712FC10B14FF0A6
:10301000FF30D9E7A04880F823400020D4E738B536
:10302000044604F0700010B10120009005E014B1D6
:103030000020009001E040200090974A1268917CA7
:10304000954A526810786B460122FFF7F1FB20B1D8
:10305000002191488172481E38BD9DF8000020F083
:1030600040018D4801730020009004F0400020B919
:103070009DF8000040F00400009004F0200020B90A
:103080009DF8000040F00200009004F0100020B90C
:103090009DF8000040F00100009004F0080020B905
:1030A0009DF8000040F0380000907B4A1268D17C07
:1030B000794A526810786B460122FFF7B9FB20B1BC
:1030C000002175488172481EC6E724B1082C02D041
:1030D0000020FFF771FF70488472002101753220D3
:1030E00003F029FD0020B7E738B504466A48807C24
:1030F000A04201D1002038BD002C46D0664A12689B
:103100001179654A526810786B460122FFF7F0FB8F
:1031100010B14FF0FF30EEE79DF8000020F02000E6
:1031200000905D4A126811795B4A526810786B46CC
:103130000122FFF77DFB10B14FF0FF30DBE70320EA
:1031400003F0F9FC02200090534890F8220020B1CF
:103150009DF8000040F0800000904F4890F8230058
:1031600020B19DF8000040F0300000904A4A1268FB
:10317000117D494A526810786B460122FFF758FBCF
:10318000002851D04FF0FF30B5E7434A126811795B
:10319000414A526810786B460122FFF7A9FB10B133
:1031A0004FF0FF30A7E73C48807A00F0010028B1DB
:1031B0009DF8000040F02000009004E09DF8000021
:1031C00020F020000090344A12681179324A526887
:1031D00010786B460122FFF72BFB10B14FF0FF3048
:1031E00089E7032003F0A7FC2B4890F8220010B1D8
:1031F0008020009001E000200090274890F82300F4
:1032000020B19DF8000040F030000090224A126882
:10321000117D214A526810786B460122FFF708FBA6
:1032200010B14FF0FF3066E71B488474002062E75E
:1032300008B51948807A10B94FF0FF3008BD00205A
:103240000090154A1268D17B134A526810786B4679
:103250000122FFF7EDFA10B14FF0FF30EEE70E4A12
:10326000126851790C4A526810786B460122FFF7B8
:10327000DFFA10B14FF0FF30E0E7074A126811792A
:10328000054A526810786B460122FFF7D1FA28B13F
:103290004FF0FF30D2E700002C000020F74890F8F4
:1032A0002400002850D00C200090F44A12681179B4
:1032B000F24A526810786B460122FFF7B9FA10B152
:1032C0004FF0FF30BAE7C0200090EC48807A00F061
:1032D000010020B19DF8000040F020000090E74A76
:1032E00012681179E54A526810786B460122FFF79F
:1032F0009FFA10B14FF0FF30A0E7E048407C10B1DA
:103300000220009001E000200090DC4A1268D17B8E
:10331000DA4A526810786B460122FFF789FA10B139
:103320004FF0FF308AE700200090D44A12685179AC
:10333000D24A526810786B460122FFF779FA0028CA
:1033400052D04FF0FF3079E704200090CB4A12684A
:103350001179CA4A526810786B460122FFF768FA61
:1033600010B14FF0FF3069E7C448807C20B9C348F2
:10337000807A00F0010010B94020009001E0602048
:103380000090BE4A12681179BC4A526810786B46A8
:103390000122FFF74DFA10B14FF0FF304EE7B7486A
:1033A000407C10B10120009001E000200090B34A61
:1033B0001268D17BB14A526810786B460122FFF740
:1033C00037FA10B14FF0FF3038E7AC4A1268517944
:1033D000AA4A52681078A94B10330122FFF728FA45
:1033E00010B14FF0FF3029E7002027E770B5044601
:1033F000002624F00104A14890F8240008B1002020
:1034000070BD9E48807A10B94FF0FF30F8E79B48B6
:10341000057C807A2040994908740846007CA042C7
:1034200002D04FF0FF3600E0002614B99348007D2B
:1034300018B10120FFF736FD02E00020FFF732FD52
:103440003CB1FFF7F5FE20B18C4805744FF0FF301A
:10345000D6E73046D4E738B504468848807A10B9B4
:103460004FF0FF3038BDBC2C02DB0120009015E08E
:10347000622C02DB0220009010E02A2C02DB0320E9
:1034800000900BE0142C02DB0420009006E00A2CD4
:1034900002DB0520009001E0062000907748C07A0A
:1034A0009DF80010884201D10020DBE7734A1268C2
:1034B0009178724A526810786B460122FFF7B8F98A
:1034C00010B14FF0FF30CDE79DF800106B48C1728E
:1034D0000020C7E738B50446282C02DD4FF0FF3046
:1034E00038BDDCB90020FFF767FD00208DF8000033
:1034F00007208DF80100614A1268917C5F4A52688A
:1035000010786B460222FFF793F910B14FF0FF30AD
:10351000E6E70021594801750020E1E70120FFF7A7
:103520004BFD20208DF80000012C06D100208DF8E5
:1035300001000520FFF78FFF17E0052C06DC0120B6
:103540008DF801000520FFF786FF0EE0142C06DC45
:1035500002208DF801000A20FFF77DFF05E003201F
:103560008DF801001420FFF776FF9DF80100072178
:1035700001EB8010C0B28DF80100404A1268917CC6
:103580003E4A526810786B460222FFF751F910B19B
:103590004FF0FF30A4E70821384881720021017301
:1035A000012101750020FFF721FF002098E738B5C1
:1035B00004463248807A10B94FF0FF3038BD2F48AA
:1035C00090F8240010B14FF0FF30F7E72B48007D52
:1035D00050B134B1282C04DCE0B2FFF77BFF0020AF
:1035E000ECE70020FFF776FF042C01DA042404E066
:1035F000B4F57A7F01DD4FF47A744FF47A7090FB62
:10360000F4F0401EC0B200901C4A126851781B4A68
:10361000526810786B460122FFF70AF910B14FF09B
:10362000FF30CBE79DF80000401C4FF47A7191FB0E
:10363000F0F081B21148C1810146C9894810FFF7F5
:103640000AFF0020BAE738B504460C48807A10B962
:103650004FF0FF3038BD022C06D0042C07D0082CC8
:1036600008D0102C0FD10BE0002000900EE00820B5
:1036700000900BE01020009008E000002C000020DB
:103680001820009002E04FF0FF30E3E700BFFC4855
:10369000407A9DF80010B0EBE10F01D10020D9E78E
:1036A000F74A1268D179F64A526810786B460122BF
:1036B000FFF7BEF810B14FF0FF30CBE79DF80000E8
:1036C000C110EF4841720020C4E738B50446EC4809
:1036D000807A10B94FF0FF3038BDFA2C09D0B4F51C
:1036E000FA7F09D0B4F57A7F09D0B4F5FA6F0CD11E
:1036F00008E0002000900BE00820009008E0102077
:10370000009005E01820009002E04FF0FF30E3E762
:1037100000BFDB48007A9DF80010B0EBE10F01D14B
:103720000020D9E7D64A12689179D54A52681078B4
:103730006B460122FFF77CF810B14FF0FF30CBE76A
:103740009DF80000C010CE4908720020C4E71CB5E7
:1037500080208DF80000CA4A1268917CC84A5268DD
:1037600010786B460122FFF763F810B14FF0FF307D
:103770001CBD642003F0DFF900208DF80000C04A72
:103780001268917CBE4A526810786B460122FFF79E
:103790004FF810B14FF0FF30EAE7B94A1268917D57
:1037A000B74A526810786B460622FFF7A1F810B1AD
:1037B0004FF0FF30DCE79DF80500C007400F9DF893
:1037C000031001F0010140EA41009DF8011001F0F1
:1037D000010140EA010474B1012C03D10121A84880
:1037E000C17427E0022C03D10021A548C17421E057
:1037F0004FF0FF30BCE7A24A1268D178A04A526865
:1038000010786B460122FFF773F810B14FF0FF30CC
:10381000AEE79DF8000000F00F0414B94FF0FF3040
:10382000A6E7042C03D101219548C17402E00021D0
:103830009348C174FF2192488172FF209049087219
:10384000FF218F484172C1724FF6FF71C181FF2184
:10385000017481740121017380F82210002180F825
:103860002310417501751630016041608160163882
:1038700080F8241080F82510C1844FF4FA60FFF717
:1038800024FF10B14FF0FF3072E70220FFF7DBFE9C
:1038900010B14FF0FF306BE72A20FFF7DCFD10B1CD
:1038A0004FF0FF3064E73220FFF781FE10B14FF098
:1038B000FF305DE70020FFF799FD10B14FF0FF30BA
:1038C00056E70020FFF710FC10B14FF0FF304FE734
:1038D0000020FFF7A4FB00204AE770477CB50446B0
:1038E0000D466748807A00F0700010B94FF0FF3045
:1038F0007CBD634A1268117B614A526810786B463E
:103900000622FEF7F5FF10B14FF0FF30F0E79DF80B
:1039100001009DF8001040EA012000B220809DF8CF
:1039200003009DF8021040EA012000B260809DF87B
:1039300005009DF8041040EA012000B2A08015B1F6
:103940002846FFF7CAFF0020D2E77CB504460D46A3
:103950004B48807A00F0080010B94FF0FF307CBD72
:10396000474A1268517B464A526810786B460622D5
:10397000FEF7BEFF10B14FF0FF30F0E79DF80100F9
:103980009DF8001040EA012000B220809DF803005D
:103990009DF8021040EA012000B260809DF8050009
:1039A0009DF8041040EA012000B2A08015B128461D
:1039B000FFF793FF0020D2E7F8B506460C463048E3
:1039C000807A10B94FF0FF30F8BD2D4A1268917B14
:1039D0002B4A526810786B460222FEF789FF10B11D
:1039E0004FF0FF30F0E79DF801009DF8001040EA2D
:1039F000012005B214B12046FFF76FFF2048406850
:103A0000B0F9080000EE100AF8EEC00A00EE105AF5
:103A1000B8EEC00A70EE600A19484068C08800EE2F
:103A2000100AB8EE400A80EE801A9FED160A31EEB9
:103A3000000ADFED150A20EE200ABDEEC00A86ED71
:103A4000000A0020C0E710B588B004461CB94FF04A
:103A5000FF3008B010BD206828B9606818B9A068A8
:103A600008B90020F5E706494968087806AB032243
:103A70001146FEF73DFF48B14FF0FF30E9E7000087
:103A80002C00002000000C42000080479DF8180028
:103A9000082101EB201000F00F00ADF800009DF8A8
:103AA000190001EB201000F00F00ADF802009DF8A6
:103AB0001A0001EB201000F00F00ADF804002068A0
:103AC0004100BDF90000403091FBF0F000B2ADF8CC
:103AD000100060684100BDF90200403091FBF0F039
:103AE00000B2ADF81200A0684100BDF904004030FA
:103AF00091FBF0F000B2ADF81400FE494968087877
:103B000006AB06221146FEF7F3FE10B14FF0FF3070
:103B10009FE79DF819009DF8181040EA012000B2B7
:103B2000ADF808009DF81B009DF81A1040EA01202E
:103B300000B2ADF80A009DF81D009DF81C1040EA87
:103B4000012000B2ADF80C00BDF81000BDF808105F
:103B5000084400B2ADF81000BDF81200BDF80A101C
:103B6000084400B2ADF81200BDF81400BDF80C1006
:103B7000084400B2ADF81400BDF81000000A8DF83A
:103B80001800BDF81000C0B28DF81900BDF8120081
:103B9000000A8DF81A00BDF81200C0B28DF81B00A3
:103BA000BDF81400000A8DF81C00BDF81400C0B266
:103BB0008DF81D00CF494968087806AB06221146EA
:103BC000FEF736FE10B14FF0FF3042E7002040E72D
:103BD0000146C848007A30B1012807D0022809D030
:103BE00003280FD10AE0FA2008800EE04FF4FA70A3
:103BF00008800AE04FF47A70088006E04FF4FA601B
:103C0000088002E00020088000BF00BF002070474D
:103C10000146B848407A30B1012807D0022808D0C0
:103C200003280CD108E0022008700BE00420087083
:103C300008E00820087005E01020087002E04FF04E
:103C4000FF30704700BFAB48C07C18B10878400611
:103C5000000E08700020F4E70146A648C07A082844
:103C600017D2DFE800F01704070A0D101318BC2064
:103C7000088013E06220088010E02A2008800DE010
:103C8000142008800AE00A20088007E00520088048
:103C900004E000BF00BF0020088000BF00BF00207C
:103CA00070470146934890F8240010B14FF0FF3060
:103CB00070479048C08908800020F9E7014600203D
:103CC0000880401E704701464FF0FF3070470146A4
:103CD0008848007A30B1012809D002280CD0032886
:103CE00014D10EE09FED840A81ED000A11E09FEDF2
:103CF000830A81ED000A0CE09FED810A81ED000A44
:103D000007E09FED800A81ED000A02E04FF0FF30EE
:103D1000704700BF0020FBE701467648407A30B18B
:103D2000012808D002280AD0032810D10BE04FF454
:103D3000804008800EE041F69C7008800AE04FF455
:103D40008050088006E04FF40060088002E04FF0E9
:103D5000FF30704700BF6748C07C10B10888401032
:103D600008800020F5E701466248007C08700020CA
:103D7000704701465F48807A10B10120087001E069
:103D8000002008700020704738B504465948807AF2
:103D900010B94FF0FF3038BD564A1268117C554AB1
:103DA000526810786B460222FEF7A2FD10B14FF068
:103DB000FF30F0E79DF801009DF8001040EA012077
:103DC00000B220800020E6E72DE9FE4F0746884636
:103DD00092461D46DDF830B000260024454890F894
:103DE000240010B1601EBDE8FE8F002028704148FD
:103DF000807A10B94FF0FF30F5E73E48007C10B9EB
:103E00004FF0FF30EFE73B48007C00F0400008B186
:103E1000B01CC6B23748007C00F0200008B1B01CCE
:103E2000C6B23448007C00F0100008B1B01CC6B225
:103E30003048007C00F0080008B1B01DC6B22D4A21
:103E40001268917A2B4A526810786B460222FEF76C
:103E50004FFD10B14FF0FF30C5E79DF801009DF810
:103E6000001040EA0129B14501DA0020BBE72148F2
:103E700040684088B9EB600F17DD1E4A1268517C1C
:103E80001C4A526810786B460122FEF731FD10B1D2
:103E90004FF0FF30A7E79DF8000000F0100020B1C0
:103EA000FFF7C6F96FF001009DE75046FFF715FDDB
:103EB000104A1268D17A0F4A526810786B4632461F
:103EC000FEF716FD10B14FF0FF308CE799FBF6F0CE
:103ED000401E8BF8000000202870B44235D0054801
:103EE000007C00F0080080B3601C1DF800001DF885
:103EF000041009E02C00002000000343000083426E
:103F0000333303423333834140EA012000B2A8F83F
:103F10000000E01C1DF80010A01C1DF8000041EA84
:103F2000002000B2A8F80200601D1DF80010201D3E
:103F30001DF8000041EA002000B2A8F8040028782B
:103F400040F008002870A01D84B2B44213D0FE488F
:103F5000007C00F0400070B1601C1DF800001DF8EE
:103F6000041040EA012000B23880287840F0400078
:103F70002870A01C84B2B44213D0F348007C00F037
:103F8000200070B1601C1DF800001DF8041040EA0C
:103F9000012000B27880287840F020002870A01C12
:103FA00084B2B44213D0E848007C00F0100070B135
:103FB000601C1DF800001DF8041040EA012000B24A
:103FC000B880287840F010002870A01C84B200202F
:103FD00009E7F8B504460F461646DB4890F824007A
:103FE00010B94FF0FF30F8BDD748807A10B94FF0C4
:103FF000FF30F8E7D44A1268917AD34A52681078B1
:104000006B460222FEF774FC10B14FF0FF30EAE776
:104010009DF801009DF8001040EA0125A54203DA51
:1040200000203070401EDEE7C74840684088B5EB8E
:10403000600F17DDC44A1268517CC34A5268107879
:104040006B460122FEF754FC10B14FF0FF30CAE777
:104050009DF8000000F0100020B1FFF7E9F86FF0C4
:104060000100C0E7E2B2B84B1B68D97AB64B5B6877
:1040700018783B46FEF73CFC10B14FF0FF30B2E73A
:1040800095FBF4F0401E30700020ACE70146AE48CE
:1040900080F82210002070477CB50546AA4949687F
:1040A000087801AB04220D21FEF722FC08B107209D
:1040B0007CBD9DF80700C0F301109DF8041001F0CD
:1040C000E00140EAE1008DF800009DF80700C0F330
:1040D00081009DF8051001F0E00140EAE1008DF853
:1040E00001009DF8070000F003009DF8061001F0A4
:1040F000E00140EAE1008DF80200002427E01DF80D
:10410000040030B99FED910A05EB840080ED000AB0
:104110001BE09FED8F0A05EB840080ED000A0BE0A9
:1041200005EB840090ED000ADFED8A0A20EE200AFC
:1041300005EB840080ED000A1DF80400401EC0B2AB
:104140000DF804000028EBD100BF601CC4B2032CA2
:10415000D5DB0020ACE7F0B52DED028B83B0064631
:104160000F4600256846FFF797FF002447E056F802
:10417000241057F82420881A002801DB014600E0AB
:10418000414200EE101AB8EEC00ADFED730A80EE6D
:10419000208A684600EB840090ED000AB5EEC00A64
:1041A000F1EE10FA18D0684600EB8400D0ED000A5A
:1041B00088EE200AF7EE000A70EE608AB0EEE80A98
:1041C0006648D0ED090AB4EEE00AF1EE10FA15DD0A
:1041D0000120A040054311E0604890ED070AB4EECD
:1041E000C80AF1EE10FA06DC90ED080AB4EEC80A2F
:1041F000F1EE10FA02D20120A0400543641C032C0A
:10420000B5DB284603B0BDEC028BF0BDF0B52DED5B
:10421000048B81B006460F4600254B494968087853
:104220006B4603220D21FEF763FB20B1072001B08E
:10423000BDEC048BF0BD9DF8000000F01F008DF870
:1042400000009DF8010000F01F008DF801009DF8AE
:10425000020000F01F008DF80200002455E056F81F
:10426000241057F82420881A002801DB014600E0BA
:10427000414200EE101AB8EEC00ADFED370A80EEB8
:10428000208A1DF8040068B3344890ED000AB8EEA7
:10429000400ADFED330A80EE801AF0EE418A05E035
:1042A0009FED300A28EE800AF0EE408A1DF80400E7
:1042B000401EC0B20DF804000028F1D188EE280A93
:1042C000F7EE000A30EE609AB0EEC90A2348D0ED4E
:1042D000060AB4EEE00AF1EE10FA15DD0120A04066
:1042E000054311E01D4890ED040AB4EEC80AF1EE52
:1042F00010FA06DC90ED050AB4EEC80AF1EE10FAE9
:1043000002D20120A0400543641C032CA7DB2846F1
:104310008DE72DE9F04F87B005460C469146012008
:104320008DF8100000208DF81100074A1268917C6A
:10433000054A5268107804AB0222FEF779FAA8B158
:104340004FF0FF3007B00FE02C000020000000000D
:104350007B14AE3E1D5A843F0000804764DF030893
:1043600000B04C4554E3853FBDE8F08FC82002F013
:10437000E2FB00208DF81000FE4A1268D17BFD4A56
:104380005268107804AB0122FEF752FA10B14FF0D8
:10439000FF30D7E7F74A12685179F64A5268107829
:1043A00004AB0122FEF744FA10B14FF0FF30C9E729
:1043B000F04A1268917CEF4A5268107804AB0122EF
:1043C000FEF736FA10B14FF0FF30BBE7E94A12684A
:1043D000D17DE84A5268107804AB0122FEF728FA32
:1043E00010B14FF0FF30ADE7E24A12681179E14AAF
:1043F0005268107804AB0122FEF71AFA10B14FF0A0
:10440000FF309FE70C208DF81000DA4A126811790E
:10441000D84A5268107804AB0122FEF709FA10B1AD
:104420004FF0FF308EE70F2002F085FBD148806A05
:10443000407A8DF81000CF4A12689178CD4A5268C0
:10444000107804AB0122FEF7F3F910B14FF0FF3002
:1044500078E7C848806A007A8DF81000C54A12686B
:104460005178C44A5268107804AB0122FEF7E0F993
:1044700010B14FF0FF3065E7B9F1000F07D0BD482C
:10448000806A807A40F0E0008DF8100004E0B948BE
:10449000806A807A8DF81000B64A12689179B54A20
:1044A0005268107804AB0122FEF7C2F910B14FF048
:1044B000FF3047E7B9F1000F07D0AE48806AC07AF5
:1044C00040F0E0008DF8100003E0AB48C07A8DF8B2
:1044D0001000A84A1268D179A64A5268107804AB35
:1044E0000122FEF7A5F910B14FF0FF302AE7B9F12C
:1044F000000F02D0C82002F01EFB40208DF81000F3
:104500009C4A126811799B4A5268107804AB0122C8
:10451000FEF78EF910B14FF0FF3013E778208DF8D9
:104520001000944A12685179924A5268107804AB8C
:104530000122FEF77DF910B14FF0FF3002E78E49FE
:10454000888902F0F8FA00208DF81000894A126874
:104550005179884A5268107804AB0122FEF768F955
:1045600010B14FF0FF30EDE6824A1268917A814A2D
:104570005268107804AB0222FEF7BAF910B14FF07E
:10458000FF30DFE69DF811009DF8101040EA012B86
:104590000C209BFBF0F0C6B20020A8606860286089
:1045A000A06060602060824665E0724A1268D17A3D
:1045B000704A5268107804AB0C22FEF799F910B1DA
:1045C0004FF0FF30BEE69DF811009DF8101040EA54
:1045D000012000B2ADF808009DF813009DF81210FC
:1045E00040EA012000B2ADF80A009DF815009DF8E0
:1045F000141040EA012000B2ADF80C00BDF908101B
:10460000206808442060BDF90A10606808446060B2
:10461000BDF90C10A0680844A0609DF817009DF833
:10462000161040EA012000B2ADF800009DF8190014
:104630009DF8181040EA012000B2ADF802009DF884
:104640001B009DF81A1040EA012000B2ADF80400EA
:10465000BDF90010286808442860BDF90210686898
:1046600008446860BDF90410A8680844A8600AF10D
:10467000010000F0FF0AB24597DB3F48D0F800C0C8
:104680002868C117090441EA104107046246002363
:10469000384635F077FC32460023CDE9020135F08B
:1046A00071FC28603448D0F800C06868C11709045C
:1046B00041EA1041070462460023384635F062FCA7
:1046C00032460023CDE9020135F05CFC68602A48DF
:1046D000D0F800C0A868C117090441EA10410704D6
:1046E00062460023384635F04DFC32460023CDE9C2
:1046F000020135F047FCA8601F48D0F804C02168CB
:10470000C817000440EA11480F04624600233846E7
:10471000414635F037FC32460023CDE9020135F041
:1047200031FC20601448D0F804C06068C117090447
:1047300041EA1041070462460023384635F022FC66
:1047400032460023CDE9020135F01CFC60600A48C6
:10475000D0F804C0A068C117090441EA1041070459
:1047600062460023384635F00DFC32460023CDE981
:10477000020103E02C00002064DF030835F002FC96
:10478000A060A068002804DDA068A0F58030A060CB
:1047900003E0A06800F58030A0600020D2E538B5C5
:1047A0000446FE4890F82400A04201D1002038BD04
:1047B00024B3FA4890F8250010B94FF0FF30F6E71F
:1047C0000020FEF76FFB0020FEF78EFCF349C88C3B
:1047D000FEF7EDFE00200090F049496808786B462E
:1047E00001222321FEF724F80121EC4880F824104F
:1047F0000120FEF757FBFEF71BFD13E00020FEF73C
:1048000051FBE648007C0090E449496808786B4613
:1048100001222321FEF70CF80021E04880F8241043
:10482000FEF706FD0020C2E72DE9F04F8DB083466C
:104830000F4602200C90D94890F8240020B10020A7
:10484000FFF7ADFF012600E0002603A8FFF7C0F93F
:1048500005A8FFF7DDF901A8FFF7FEF902A8FFF7A9
:1048600020FACE4890F80AA004A8FFF77CFA0024AA
:1048700007E0002239465846FFF74BFD00B902E039
:10488000641C022CF5DB00BF022C01D1002528E0BE
:10489000002407E0012206A909A8FFF73AFD00B9A4
:1048A00002E0641C022CF5DB00BF022C01D10025C4
:1048B00017E006A93846FFF74EFC00F0FF0809A9EB
:1048C0005846FFF7A3FC00F0FF090025B9F1000FDF
:1048D00001D145F00105B8F1000F01D145F0020505
:1048E00000BFFF20AD490872FF21AC484172C17280
:1048F0004FF6FF71C181FF218172017401210173A3
:10490000BDF80C00FEF7E1FE9DF81400FEF79BFEDB
:10491000BDF80400FEF79FFDBDF80800FEF747FE56
:104920005046FEF77CFB9DF81000FEF75FFD16B1C8
:104930000120FFF734FF28460DB0BDE8F08FF8B531
:1049400004460D46164616B94FF0FF30F8BD9348A1
:10495000807A10B94FF0FF30F8E720128DF8000090
:10496000E0B28DF801009DF8010028448B494968A8
:104970004989884202DD4FF0FF30E7E7874A126835
:10498000117E864A526810786B460222FDF750FF6E
:1049900010B14FF0FF30D9E7EAB2804B1B68597D68
:1049A0007E4B5B6818783346FDF742FF10B14FF03D
:1049B000FF30CBE70020C9E7F8B504460D461646A0
:1049C00016B94FF0FF30F8BD7448807A10B94FF037
:1049D000FF30F8E720128DF80000E0B28DF80100FA
:1049E0009DF8010028446D4949684989884202DDE3
:1049F0004FF0FF30E7E7694A1268117E674A526854
:104A000010786B460222FDF713FF10B14FF0FF3014
:104A1000D9E7EAB2614B1B68597D604B5B68187837
:104A20003346FDF765FF10B14FF0FF30CBE70020B4
:104A3000C9E72DE9F04385B005460E4690469946F4
:104A4000564890F8250020B14FF0FF3005B0BDE882
:104A5000F08316B94FF0FF30F8E7002423E0281B5D
:104A6000102801DD102000E0281B87B232193946DA
:104A70002046FFF764FF10B14FF0FF30E6E701AAD0
:104A800039462046FFF798FF10B14FF0FF30DDE7C1
:104A900030193A4601A935F0B9FB10B16FF00100A9
:104AA000D4E7E01984B2AC42D9DB4FEA28208DF874
:104AB000000008F0FF008DF80100384A1268917E6E
:104AC000364A526810786B460222FDF7B1FE10B1EB
:104AD0004FF0FF30BAE70121304880F82510A0F8E8
:104AE00026900020B2E701462C4890F82400087078
:104AF0000020704702464FF0FF30704701464FF0EC
:104B0000FF307047F8B505460F461446002C73D0A9
:104B1000B5F5FF5F01DDFF2605E0202D01DA012656
:104B200001E0C5F3471607B90127282C02DD4FF035
:104B3000FF30F8BD1948407D28BB184890F8240084
:104B400038B10020FFF72BFE0121144880F8201017
:104B500003E00021114880F8201010481630FFF7BC
:104B600037F80E481830FFF753F80C481A30FFF7A3
:104B700073F80A481C30FFF794F80848817A817767
:104B80001F30FFF7F0F80020FEF78CF90020FEF749
:104B9000A1FC00208DF80000004A01E02C0000205C
:104BA00012689178594A526810786B460122FDF7D5
:104BB0003FFE10B14FF0FF30BBE740208DF8000002
:104BC000524A1268D17B514A526810786B460122D2
:104BD000FDF72EFE00B165E08DF800608DF80170E4
:104BE0004A4A1268117A494A526810786B46022282
:104BF000FDF71EFE08B155E047E0052001F09BFFE0
:104C00004248407A072101EBC000C0B28DF8000095
:104C10003E4A1268D1793D4A526810786B460122AB
:104C2000FDF706FE00B13DE020208DF80000012CCC
:104C300003D100208DF801000EE0052C03DC0120DB
:104C40008DF8010008E0142C03DC02208DF801002F
:104C500002E003208DF801009DF80100072101EB1F
:104C60008010C0B28DF80100284A1268917C274A52
:104C7000526810786B460222FDF7DAFD00B111E0B0
:104C8000012122484175002053E7204A16320021B5
:104C900003E0505C00B105E0491C0C29F9D34FF04A
:104CA000FF3046E7FF2019490872FF21174841727B
:104CB000C1724FF6FF71C181FF2181720174012120
:104CC00001730146887FFEF7AAF91049C88AFEF7EA
:104CD000FCFC0E49087EFEF7B6FC0C49488BFEF73B
:104CE000BAFB0A49888BFEF762FC0849C87FFEF7C9
:104CF0007DFB064890F8200010B10120FFF74FFD22
:104D0000002102484175002013E700002C0000201C
:104D100010B5C8234FF48062F74940F6F630FFF72C
:104D200088FE10BD10B586B00446F4A0006803905C
:104D3000F3A000680290F3A000680190F2A0006860
:104D4000009004F0030003A9085C8DF8140003A888
:104D5000C4F3C101405C8DF8150003A8C4F38111B0
:104D6000405C8DF8160004F0030002A9085C8DF881
:104D7000100002A8C4F3C101405C8DF8110002A824
:104D8000C4F38111405C8DF8120005AA032140F2A2
:104D90002640FFF7D4FD18B14FF0FF3006B010BD2C
:104DA00004AA032140F22A40FFF7C9FD10B14FF0D9
:104DB000FF30F3E7019805900098049004F0040098
:104DC00058B19DF8140040F001008DF814009DF8D2
:104DD000100040F001008DF8100004F0200058B1E0
:104DE0009DF8150040F001008DF815009DF81100A8
:104DF00040F001008DF8110004F4807058B19DF866
:104E0000160040F001008DF816009DF8120040F0E9
:104E100001008DF8120005AA03214FF48860FFF706
:104E20008EFD10B14FF0FF30B8E704AA032140F225
:104E30003140FFF784FD10B14FF0FF30AEE7B348CB
:104E400004810020AAE71FB50446B048007A00F0AC
:104E5000030054F820000190AC48007A00F00400F0
:104E600010B1019840420190A848007AC0F3C100F7
:104E700054F820000290A548007A00F0200010B1FC
:104E8000029840420290A148007AC0F3811054F881
:104E9000200003909D48008900F4807010B10398B1
:104EA000404203909A49019880FB0101800F40EA3B
:104EB000810001909649029880FB0110820042EA2D
:104EC000917002909249039880FB0110820042EA9F
:104ED000917003900198000E8DF800000198000C6D
:104EE0008DF801000198000A8DF802000198C0B207
:104EF0008DF803006A4604214FF47470FFF71FFD1C
:104F000018B14FF0FF3004B010BD0298000E8DF8BC
:104F100000000298000C8DF801000298000A8DF83C
:104F200002000298C0B28DF803006A4604214FF4D3
:104F30007570FFF704FD10B14FF0FF30E3E7039801
:104F4000000E8DF800000398000C8DF80100039806
:104F5000000A8DF802000398C0B28DF803006A467B
:104F600004214FF47670FFF7EAFCCCE770B588B007
:104F7000064601A8FEF7D0FEBDF804000021C903D3
:104F800041EA5045C4036148007A00F0030056F836
:104F9000200005905D48007A00F0040010B10598EB
:104FA000404205905948007AC0F3C10056F82000ED
:104FB00006905648007A00F0200010B10698404252
:104FC00006905248007AC0F3811056F820000790EE
:104FD0004E48008900F4807010B107984042079055
:104FE0000598C117A0FB042301FB043100FB051049
:104FF000810041EA927005900698C117A0FB042336
:1050000001FB043100FB0510810041EA927006901B
:105010000798C117A0FB042301FB043100FB051016
:10502000810041EA927007900598000E8DF8080003
:105030000598000C8DF809000598000A8DF80A0003
:105040000598C0B28DF80B000698000E8DF80C0084
:105050000698000C8DF80D000698000A8DF80E00D9
:105060000698C0B28DF80F000798000E8DF810005A
:105070000798000C8DF811000798000A8DF81200AF
:105080000798C0B28DF8130002AA0C214FF42570C6
:10509000FFF755FC08B070BD30B585B004461DA2C1
:1050A00007CA02AB07C3C82C03DD4FF0FF3005B0C1
:1050B00030BDC82090FBF4F0401E85B2280A8DF860
:1050C0000000E8B28DF801006A46022140F2162085
:1050D000FFF735FC10B14FF0FF30E8E702AA0C21D2
:1050E00040F6C120FFF72BFC10B14FF0FF30DEE798
:1050F000064884810020DAE78CDF03084CCD6C0081
:105100000CC92C0036567600264666006842002000
:1051100009E3CA02FEF2ABC4AAF1DFDFBBAFDFDFF7
:105120000146F9488089088000207047F0B52DEDD0
:10513000028B83B006460F4606F0070010B1B7F5A4
:10514000C86F05DD4FF0FF3003B0BDEC028BF0BD42
:1051500000EE107AB8EE400ADFEDEC0A80EE208A0D
:1051600001A8FEF755FD9DF80400022806D004288A
:1051700017D0082828D010284CD138E09FEDE40A39
:1051800028EE000ABCEEC00A10EE100A84B29FEDB1
:10519000E10A28EE000ABCEEC00A10EE100A85B241
:1051A0003BE09FEDDD0A28EE000ABCEEC00A10EEDF
:1051B000100A84B29FEDD90A28EE000ABCEEC00A9C
:1051C00010EE100A85B228E09FEDD50A28EE000AFD
:1051D000BCEEC00A10EE100A84B29FEDD20A28EE8F
:1051E000000ABCEEC00A10EE100A85B215E09FED71
:1051F000CE0A28EE000ABCEEC00A10EE100A84B2F5
:105200009FEDCA0A28EE000ABCEEC00A10EE100A92
:1052100085B202E04FF0FF3096E700BF20128DF814
:105220000800E0B28DF8090028128DF80A00E8B2F3
:105230008DF80B0006F00100A0B102AA02214FF484
:10524000EA70FFF77CFB10B14FF0FF307CE70DF107
:105250000A0202214FF49270FFF771FB10B14FF078
:10526000FF3071E706F00200A0B102AA02214FF45C
:10527000EC70FFF764FB10B14FF0FF3064E70DF105
:105280000A0202214FF49470FFF759FB10B14FF05E
:10529000FF3059E706F00400A0B102AA02214FF442
:1052A000EE70FFF74CFB10B14FF0FF304CE70DF103
:1052B0000A0202214FF49670FFF741FB10B14FF044
:1052C000FF3041E700203FE738B50446002000905A
:1052D00004F0010020B19DF8000040F03000009083
:1052E00004F0020020B19DF8000040F00C00009096
:1052F00004F0040020B19DF8000040F0030000908D
:105300006A4601214FF4A470FFF719FB38BD38B588
:105310000446012C01DA012402E0042C00DD0424FF
:10532000601EC0B200906A46012140F24F10FFF7A4
:1053300006FB38BD38B50446052094FBF0F085B275
:1053400028128DF80000E8B28DF801006A460221AB
:105350004FF4EF70FFF7F3FA38BD38B50446052077
:1053600094FBF0F085B228128DF80000E8B28DF8B9
:1053700001006A4602214FF4ED70FFF7E0FA38BDF4
:10538000F8B505460E464FF47A7095FBF0F000FB39
:1053900006F4200E8DF80000200C8DF80100200A84
:1053A0008DF80200E0B28DF803006A4604214FF444
:1053B000AE70FFF7C4FAF8BD38B50446052094FB7B
:1053C000F0F084B220128DF80000E0B28DF80100F8
:1053D0006A4602214FF4AD70FFF7B1FA38BD38B517
:1053E0000446052094FBF0F084B220128DF80000F2
:1053F000E0B28DF801006A4602214FF4AC70FFF76D
:105400009EFA38BD38B5044614B94FF0FF3038BDA8
:105410006A4604214FF45870FFF7CEFA10B14FF0EE
:10542000FF30F4E79DF8000000069DF8011040EA07
:1054300001409DF8021040EA01209DF80310084346
:1054400020600020E3E738B50446200E8DF8000008
:10545000200C8DF80100200A8DF80200E0B28DF8D2
:1054600003006A4604214FF45870FFF768FA38BD0C
:1054700038B5044614B94FF0FF3038BD6A460421F0
:105480004FF47170FFF798FA10B14FF0FF30F4E766
:105490009DF8000000069DF8011040EA01409DF8CB
:1054A000021040EA01209DF80310084300EB800041
:1054B000800020600020E0E738B504461420B4FBEB
:1054C000F0F4200E8DF80000200C8DF80100200A69
:1054D0008DF80200E0B28DF803006A4604214FF413
:1054E0007170FFF72CFA38BD38B5044604B320209C
:1054F0008DF8000028208DF8010030208DF8020082
:1055000038208DF8030018E068420020000048436E
:105510000000804600004046000000460000C045F4
:105520000000804500004045000000450000C044E8
:10553000A3220421684634F04FFF6A46042140F656
:105540009E20FFF7FCF9FDF773FE38BD38B5044621
:1055500064B1C0208DF80000C2208DF80100C42085
:105560008DF80200C6208DF8030004E08B22042190
:10557000684634F031FF6A46042140F69820FFF770
:10558000DEF9FDF755FE38BD3EB504466CB1FDA110
:10559000D1E900208968CDE9002002916A460921FD
:1055A0004FF49760FFF7CBF93EBDF9A2D2E90010A6
:1055B0009268CDE9010200916A4609214FF4976093
:1055C000FFF7BDF9F0E73EB5044602208DF8000074
:1055D000CA208DF80100E3208DF8020009208DF823
:1055E00003006A4604216820FFF7A9F9A3208DF87B
:1055F000000004F0400048B1C0208DF80100C82030
:105600008DF80200C2208DF8030006E0A3208DF87B
:1056100001008DF802008DF8030004F4C07048B159
:10562000C4208DF80400CC208DF80500C6208DF82C
:10563000060006E0A3208DF804008DF805008DF823
:105640000600A3208DF807008DF808008DF80900EA
:105650006A460A2140F6A720FFF771F904F003001B
:1056600018B120208DF8000002E0D8208DF800004D
:105670006A46012140F6B620FFF761F904F02000E8
:1056800018B10120FFF780FF02E00020FFF77CFF48
:1056900004F4C07008B304F4807060B1B2208DF8D7
:1056A00000008B208DF80100B6208DF802009B20B1
:1056B0008DF803000BE0B0208DF8000080208DF8FD
:1056C0000100B4208DF8020090208DF803006A4696
:1056D000042140F6A220FFF732F904F0010020B3C4
:1056E000F8208DF800006A4601214FF40B60FFF7A7
:1056F00026F9FA210720FFF719FD0720FFF7E4FD3F
:105700000120FFF704FE6420FFF714FE4FF4FA7047
:10571000FFF723FEC821A148FFF732FE2820FFF73C
:105720004BFE0A20FFF75BFE08E0D8208DF8000052
:105730006A4601214FF40B60FFF701F904F0020003
:1057400018B1D9208DF8000002E0D8208DF80000B3
:105750006A46012140F23D70FFF7F1F804F00400C1
:1057600018B10120FFF7F2FE02E00020FFF7EEFE85
:1057700004F0100018B10120FFF7B6FE02E000208F
:10578000FFF7B2FE44F0080085494881FDF750FD5F
:1057900000208349887304F0400018B10846807BDC
:1057A000801D887304F4C07020B17D48807B801D0B
:1057B0007B49887304F0140020B17948807B103055
:1057C0007749887304F0030020B17548807B001D81
:1057D0007349887300203EBD0146714840890880A6
:1057E000002070472DE9F0410446E07800F0C00643
:1057F000E07800F03F05607800F0010098B1EF100C
:105800002846E91705EB5171C910A5EBC101491CE8
:1058100001F0FF086248006820B161484146026813
:105820003846904700BF607800F0080030B15C480F
:10583000406818B1B0115A4A516888470020BDE845
:10584000F08110B586B0044656A207CA03AB07C361
:1058500057A207CA8DE80700012C09D0022C0ED1EF
:1058600003AA0B2140F68220FFF769F806B010BDAD
:105870006A460B2140F68220FFF761F8F6E74FF009
:10588000FF30F3E72DE9F04F8DB007468846154607
:105890009946DDE9166B0024002030804049887B62
:1058A0005A4605A9FEF795FB18B1601E0DB0BDE87C
:1058B000F08F3B48807A00F01400002861D09DF8FA
:1058C000140000069DF8151040EA01409DF81610DE
:1058D00040EA01209DF81710084328609DF8180041
:1058E00000069DF8191040EA01409DF81A1040EAA0
:1058F00001209DF81B10084368609DF81C000006FD
:105900009DF81D1040EA01409DF81E1040EA01205C
:105910009DF81F100843A8609DF8200000069DF820
:10592000211040EA01409DF8221040EA01209DF834
:1059300023100843E86004F11000C4B22868001482
:105940000190686800140290A86800140390E86849
:105950000014049001984043029901FB010003994F
:1059600001FB0100049901FB010ABAF1706F02DB2F
:10597000BAF1885F22DDFDF75BFC00203080401E1D
:1059800094E721E0B8AAB38DB4980D355D0000000E
:10599000B8AAAAAAB088C3C5C700000009E3CA0212
:1059A00068420020D8B1B9F38BA391B609B4D900ED
:1059B000DAB1B9F38BA391B6DAB4DA00B6F9000024
:1059C00040F48070308000BF3448807A00F040009E
:1059D00020B305A9601C085C095D40EA012000B203
:1059E000A8F8000005A9E01C095C05AAA01C105C31
:1059F00041EA002000B2A8F8020005A9601D095C78
:105A0000201D105C41EA002000B2A8F80400A01D8F
:105A1000C4B2B6F9000040F0080030801F48408949
:105A200000F4C07008B305A9601C085C095D40EA79
:105A3000012000B2388005A9E01C095C05AAA01C61
:105A4000105C41EA002000B2788005A9601D095C65
:105A5000201D105C41EA002000B2B880A01DC4B235
:105A6000B6F9000040F0700030800C48807A00F0F9
:105A7000030018B105A90819FFF7B4FE4846FDF761
:105A80002CFF002012E70146044801600020704707
:105A90000146024841600020704700006842002033
:105AA000014691F90020002A01DD00201EE091F955
:105AB0000020002A01DA042018E091F90120002AD0
:105AC00001DD012012E091F90120002A01DA052010
:105AD0000CE091F90220002A01DD022006E091F994
